{
  "_format": "hh-sol-artifact-1",
  "contractName": "arbitrage",
  "sourceName": "contracts/arbitrage.sol",
  "abi": [
    {
      "inputs": [
        {
          "internalType": "address",
          "name": "_token0",
          "type": "address"
        },
        {
          "internalType": "address",
          "name": "_token1",
          "type": "address"
        }
      ],
      "stateMutability": "nonpayable",
      "type": "constructor"
    },
    {
      "anonymous": false,
      "inputs": [
        {
          "indexed": true,
          "internalType": "address",
          "name": "previousOwner",
          "type": "address"
        },
        {
          "indexed": true,
          "internalType": "address",
          "name": "newOwner",
          "type": "address"
        }
      ],
      "name": "OwnershipTransferred",
      "type": "event"
    },
    {
      "inputs": [],
      "name": "checkBalance",
      "outputs": [
        {
          "internalType": "uint256",
          "name": "",
          "type": "uint256"
        },
        {
          "internalType": "uint256",
          "name": "",
          "type": "uint256"
        }
      ],
      "stateMutability": "view",
      "type": "function"
    },
    {
      "inputs": [
        {
          "internalType": "uint256",
          "name": "amount",
          "type": "uint256"
        }
      ],
      "name": "depositFunds",
      "outputs": [],
      "stateMutability": "nonpayable",
      "type": "function"
    },
    {
      "inputs": [
        {
          "internalType": "address",
          "name": "router",
          "type": "address"
        },
        {
          "internalType": "uint256",
          "name": "_amount",
          "type": "uint256"
        }
      ],
      "name": "getAmountOut",
      "outputs": [
        {
          "internalType": "uint256",
          "name": "",
          "type": "uint256"
        }
      ],
      "stateMutability": "view",
      "type": "function"
    },
    {
      "inputs": [],
      "name": "owner",
      "outputs": [
        {
          "internalType": "address",
          "name": "",
          "type": "address"
        }
      ],
      "stateMutability": "view",
      "type": "function"
    },
    {
      "inputs": [],
      "name": "renounceOwnership",
      "outputs": [],
      "stateMutability": "nonpayable",
      "type": "function"
    },
    {
      "inputs": [
        {
          "internalType": "address",
          "name": "routerBuy",
          "type": "address"
        },
        {
          "internalType": "address",
          "name": "routerSell",
          "type": "address"
        }
      ],
      "name": "trade",
      "outputs": [],
      "stateMutability": "nonpayable",
      "type": "function"
    },
    {
      "inputs": [
        {
          "internalType": "address",
          "name": "newOwner",
          "type": "address"
        }
      ],
      "name": "transferOwnership",
      "outputs": [],
      "stateMutability": "nonpayable",
      "type": "function"
    },
    {
      "inputs": [
        {
          "internalType": "uint256",
          "name": "amount",
          "type": "uint256"
        }
      ],
      "name": "withdrawFunds",
      "outputs": [],
      "stateMutability": "nonpayable",
      "type": "function"
    }
  ],
  "bytecode": "0x60806040523480156200001157600080fd5b5060405162001b0d38038062001b0d8339818101604052810190620000379190620001c4565b620000576200004b620000e160201b60201c565b620000e960201b60201c565b81600260006101000a81548173ffffffffffffffffffffffffffffffffffffffff021916908373ffffffffffffffffffffffffffffffffffffffff16021790555080600360006101000a81548173ffffffffffffffffffffffffffffffffffffffff021916908373ffffffffffffffffffffffffffffffffffffffff160217905550505062000253565b600033905090565b60008060009054906101000a900473ffffffffffffffffffffffffffffffffffffffff169050816000806101000a81548173ffffffffffffffffffffffffffffffffffffffff021916908373ffffffffffffffffffffffffffffffffffffffff1602179055508173ffffffffffffffffffffffffffffffffffffffff168173ffffffffffffffffffffffffffffffffffffffff167f8be0079c531659141344cd1fd0a4f28419497f9722a3daafe3b4186f6b6457e060405160405180910390a35050565b600081519050620001be8162000239565b92915050565b60008060408385031215620001d857600080fd5b6000620001e885828601620001ad565b9250506020620001fb85828601620001ad565b9150509250929050565b6000620002128262000219565b9050919050565b600073ffffffffffffffffffffffffffffffffffffffff82169050919050565b620002448162000205565b81146200025057600080fd5b50565b6118aa80620002636000396000f3fe608060405234801561001057600080fd5b50600436106100885760003560e01c80638da5cb5b1161005b5780638da5cb5b146100eb578063c71daccb14610109578063ca706bcf14610128578063f2fde38b1461015857610088565b8063155dd5ee1461008d5780633b76594d146100a95780633c54ca8c146100c5578063715018a6146100e1575b600080fd5b6100a760048036038101906100a291906111c7565b610174565b005b6100c360048036038101906100be91906111c7565b61028d565b005b6100df60048036038101906100da91906110e5565b61035b565b005b6100e96109d6565b005b6100f36109ea565b6040516101009190611357565b60405180910390f35b610111610a13565b60405161011f9291906114f7565b60405180910390f35b610142600480360381019061013d9190611121565b610b74565b60405161014f9190611452565b60405180910390f35b610172600480360381019061016d91906110bc565b610e04565b005b61017c610e88565b8060015410156101c1576040517f08c379a00000000000000000000000000000000000000000000000000000000081526004016101b890611412565b60405180910390fd5b600260009054906101000a900473ffffffffffffffffffffffffffffffffffffffff1673ffffffffffffffffffffffffffffffffffffffff1663a9059cbb33836040518363ffffffff1660e01b815260040161021e9291906113a9565b602060405180830381600087803b15801561023857600080fd5b505af115801561024c573d6000803e3d6000fd5b505050506040513d601f19601f82011682018060405250810190610270919061119e565b5080600160008282546102839190611611565b9250508190555050565b600260009054906101000a900473ffffffffffffffffffffffffffffffffffffffff1673ffffffffffffffffffffffffffffffffffffffff166323b872dd3330846040518463ffffffff1660e01b81526004016102ec93929190611372565b602060405180830381600087803b15801561030657600080fd5b505af115801561031a573d6000803e3d6000fd5b505050506040513d601f19601f8201168201806040525081019061033e919061119e565b50806001600082825461035191906115bb565b9250508190555050565b600260009054906101000a900473ffffffffffffffffffffffffffffffffffffffff1673ffffffffffffffffffffffffffffffffffffffff1663095ea7b3836001546040518363ffffffff1660e01b81526004016103ba9291906113a9565b602060405180830381600087803b1580156103d457600080fd5b505af11580156103e8573d6000803e3d6000fd5b505050506040513d601f19601f8201168201806040525081019061040c919061119e565b506060600267ffffffffffffffff811115610450577f4e487b7100000000000000000000000000000000000000000000000000000000600052604160045260246000fd5b60405190808252806020026020018201604052801561047e5781602001602082028036833780820191505090505b509050600260009054906101000a900473ffffffffffffffffffffffffffffffffffffffff16816000815181106104de577f4e487b7100000000000000000000000000000000000000000000000000000000600052603260045260246000fd5b602002602001019073ffffffffffffffffffffffffffffffffffffffff16908173ffffffffffffffffffffffffffffffffffffffff1681525050600360009054906101000a900473ffffffffffffffffffffffffffffffffffffffff1681600181518110610575577f4e487b7100000000000000000000000000000000000000000000000000000000600052603260045260246000fd5b602002602001019073ffffffffffffffffffffffffffffffffffffffff16908173ffffffffffffffffffffffffffffffffffffffff168152505060008373ffffffffffffffffffffffffffffffffffffffff166338ed173960015460008530603c426105e191906115bb565b6040518663ffffffff1660e01b815260040161060195949392919061149d565b600060405180830381600087803b15801561061b57600080fd5b505af115801561062f573d6000803e3d6000fd5b505050506040513d6000823e3d601f19601f82011682018060405250810190610658919061115d565b90506000816001835161066b9190611611565b815181106106a2577f4e487b7100000000000000000000000000000000000000000000000000000000600052603260045260246000fd5b60200260200101519050600360009054906101000a900473ffffffffffffffffffffffffffffffffffffffff1673ffffffffffffffffffffffffffffffffffffffff1663095ea7b385836040518363ffffffff1660e01b81526004016107099291906113a9565b602060405180830381600087803b15801561072357600080fd5b505af1158015610737573d6000803e3d6000fd5b505050506040513d601f19601f8201168201806040525081019061075b919061119e565b50600360009054906101000a900473ffffffffffffffffffffffffffffffffffffffff16836000815181106107b9577f4e487b7100000000000000000000000000000000000000000000000000000000600052603260045260246000fd5b602002602001019073ffffffffffffffffffffffffffffffffffffffff16908173ffffffffffffffffffffffffffffffffffffffff1681525050600260009054906101000a900473ffffffffffffffffffffffffffffffffffffffff1683600181518110610850577f4e487b7100000000000000000000000000000000000000000000000000000000600052603260045260246000fd5b602002602001019073ffffffffffffffffffffffffffffffffffffffff16908173ffffffffffffffffffffffffffffffffffffffff16815250508373ffffffffffffffffffffffffffffffffffffffff166338ed17398260008630603c426108b891906115bb565b6040518663ffffffff1660e01b81526004016108d895949392919061149d565b600060405180830381600087803b1580156108f257600080fd5b505af1158015610906573d6000803e3d6000fd5b505050506040513d6000823e3d601f19601f8201168201806040525081019061092f919061115d565b9150600082600184516109429190611611565b81518110610979577f4e487b7100000000000000000000000000000000000000000000000000000000600052603260045260246000fd5b6020026020010151905060015481116109c7576040517f08c379a00000000000000000000000000000000000000000000000000000000081526004016109be90611432565b60405180910390fd5b80600181905550505050505050565b6109de610e88565b6109e86000610f06565b565b60008060009054906101000a900473ffffffffffffffffffffffffffffffffffffffff16905090565b600080600260009054906101000a900473ffffffffffffffffffffffffffffffffffffffff1673ffffffffffffffffffffffffffffffffffffffff166370a08231306040518263ffffffff1660e01b8152600401610a719190611357565b60206040518083038186803b158015610a8957600080fd5b505afa158015610a9d573d6000803e3d6000fd5b505050506040513d601f19601f82011682018060405250810190610ac191906111f0565b600360009054906101000a900473ffffffffffffffffffffffffffffffffffffffff1673ffffffffffffffffffffffffffffffffffffffff166370a08231306040518263ffffffff1660e01b8152600401610b1c9190611357565b60206040518083038186803b158015610b3457600080fd5b505afa158015610b48573d6000803e3d6000fd5b505050506040513d601f19601f82011682018060405250810190610b6c91906111f0565b915091509091565b60006060600267ffffffffffffffff811115610bb9577f4e487b7100000000000000000000000000000000000000000000000000000000600052604160045260246000fd5b604051908082528060200260200182016040528015610be75781602001602082028036833780820191505090505b509050600260009054906101000a900473ffffffffffffffffffffffffffffffffffffffff1681600081518110610c47577f4e487b7100000000000000000000000000000000000000000000000000000000600052603260045260246000fd5b602002602001019073ffffffffffffffffffffffffffffffffffffffff16908173ffffffffffffffffffffffffffffffffffffffff1681525050600360009054906101000a900473ffffffffffffffffffffffffffffffffffffffff1681600181518110610cde577f4e487b7100000000000000000000000000000000000000000000000000000000600052603260045260246000fd5b602002602001019073ffffffffffffffffffffffffffffffffffffffff16908173ffffffffffffffffffffffffffffffffffffffff168152505060008473ffffffffffffffffffffffffffffffffffffffff1663d06ca61f85846040518363ffffffff1660e01b8152600401610d5592919061146d565b60006040518083038186803b158015610d6d57600080fd5b505afa158015610d81573d6000803e3d6000fd5b505050506040513d6000823e3d601f19601f82011682018060405250810190610daa919061115d565b90508060018251610dbb9190611611565b81518110610df2577f4e487b7100000000000000000000000000000000000000000000000000000000600052603260045260246000fd5b60200260200101519250505092915050565b610e0c610e88565b600073ffffffffffffffffffffffffffffffffffffffff168173ffffffffffffffffffffffffffffffffffffffff161415610e7c576040517f08c379a0000000000000000000000000000000000000000000000000000000008152600401610e73906113d2565b60405180910390fd5b610e8581610f06565b50565b610e90610fca565b73ffffffffffffffffffffffffffffffffffffffff16610eae6109ea565b73ffffffffffffffffffffffffffffffffffffffff1614610f04576040517f08c379a0000000000000000000000000000000000000000000000000000000008152600401610efb906113f2565b60405180910390fd5b565b60008060009054906101000a900473ffffffffffffffffffffffffffffffffffffffff169050816000806101000a81548173ffffffffffffffffffffffffffffffffffffffff021916908373ffffffffffffffffffffffffffffffffffffffff1602179055508173ffffffffffffffffffffffffffffffffffffffff168173ffffffffffffffffffffffffffffffffffffffff167f8be0079c531659141344cd1fd0a4f28419497f9722a3daafe3b4186f6b6457e060405160405180910390a35050565b600033905090565b6000610fe5610fe084611545565b611520565b9050808382526020820190508285602086028201111561100457600080fd5b60005b85811015611034578161101a88826110a7565b845260208401935060208301925050600181019050611007565b5050509392505050565b60008135905061104d8161182f565b92915050565b600082601f83011261106457600080fd5b8151611074848260208601610fd2565b91505092915050565b60008151905061108c81611846565b92915050565b6000813590506110a18161185d565b92915050565b6000815190506110b68161185d565b92915050565b6000602082840312156110ce57600080fd5b60006110dc8482850161103e565b91505092915050565b600080604083850312156110f857600080fd5b60006111068582860161103e565b92505060206111178582860161103e565b9150509250929050565b6000806040838503121561113457600080fd5b60006111428582860161103e565b925050602061115385828601611092565b9150509250929050565b60006020828403121561116f57600080fd5b600082015167ffffffffffffffff81111561118957600080fd5b61119584828501611053565b91505092915050565b6000602082840312156111b057600080fd5b60006111be8482850161107d565b91505092915050565b6000602082840312156111d957600080fd5b60006111e784828501611092565b91505092915050565b60006020828403121561120257600080fd5b6000611210848285016110a7565b91505092915050565b60006112258383611231565b60208301905092915050565b61123a81611645565b82525050565b61124981611645565b82525050565b600061125a82611581565b6112648185611599565b935061126f83611571565b8060005b838110156112a05781516112878882611219565b97506112928361158c565b925050600181019050611273565b5085935050505092915050565b6112b68161168d565b82525050565b60006112c96026836115aa565b91506112d48261173f565b604082019050919050565b60006112ec6020836115aa565b91506112f78261178e565b602082019050919050565b600061130f601d836115aa565b915061131a826117b7565b602082019050919050565b60006113326021836115aa565b915061133d826117e0565b604082019050919050565b61135181611683565b82525050565b600060208201905061136c6000830184611240565b92915050565b60006060820190506113876000830186611240565b6113946020830185611240565b6113a16040830184611348565b949350505050565b60006040820190506113be6000830185611240565b6113cb6020830184611348565b9392505050565b600060208201905081810360008301526113eb816112bc565b9050919050565b6000602082019050818103600083015261140b816112df565b9050919050565b6000602082019050818103600083015261142b81611302565b9050919050565b6000602082019050818103600083015261144b81611325565b9050919050565b60006020820190506114676000830184611348565b92915050565b60006040820190506114826000830185611348565b8181036020830152611494818461124f565b90509392505050565b600060a0820190506114b26000830188611348565b6114bf60208301876112ad565b81810360408301526114d1818661124f565b90506114e06060830185611240565b6114ed6080830184611348565b9695505050505050565b600060408201905061150c6000830185611348565b6115196020830184611348565b9392505050565b600061152a61153b565b9050611536828261169f565b919050565b6000604051905090565b600067ffffffffffffffff8211156115605761155f6116ff565b5b602082029050602081019050919050565b6000819050602082019050919050565b600081519050919050565b6000602082019050919050565b600082825260208201905092915050565b600082825260208201905092915050565b60006115c682611683565b91506115d183611683565b9250827fffffffffffffffffffffffffffffffffffffffffffffffffffffffffffffffff03821115611606576116056116d0565b5b828201905092915050565b600061161c82611683565b915061162783611683565b92508282101561163a576116396116d0565b5b828203905092915050565b600061165082611663565b9050919050565b60008115159050919050565b600073ffffffffffffffffffffffffffffffffffffffff82169050919050565b6000819050919050565b600061169882611683565b9050919050565b6116a88261172e565b810181811067ffffffffffffffff821117156116c7576116c66116ff565b5b80604052505050565b7f4e487b7100000000000000000000000000000000000000000000000000000000600052601160045260246000fd5b7f4e487b7100000000000000000000000000000000000000000000000000000000600052604160045260246000fd5b6000601f19601f8301169050919050565b7f4f776e61626c653a206e6577206f776e657220697320746865207a65726f206160008201527f6464726573730000000000000000000000000000000000000000000000000000602082015250565b7f4f776e61626c653a2063616c6c6572206973206e6f7420746865206f776e6572600082015250565b7f4572726f722120416d6f756e7420457863656564732042616c616e6365000000600082015250565b7f547261646520526576657274656421204c6f7373206d616b696e67207472616460008201527f6500000000000000000000000000000000000000000000000000000000000000602082015250565b61183881611645565b811461184357600080fd5b50565b61184f81611657565b811461185a57600080fd5b50565b61186681611683565b811461187157600080fd5b5056fea26469706673582212207678e166168c994336790a438d9d60f3c890001bbdca2bd8ac4de943acda9d8364736f6c63430008040033",
  "linkReferences": {},
  "deployedLinkReferences": {}
}